:0F0000000200260200F90201A03232020009328A
:0300130002000ADE
:03001B0002000ED2
:100023000200B2787FE4F6D8FD75813102006D02DB
:1000330001B6E493A3F8E493A34003F68001F20826
:10004300DFF48029E493A3F85407240CC8C333C412
:10005300540F4420C8834004F456800146F6DFE47D
:10006300800B0102040810204080900188E47E0187
:100073009360BCA3FF543F30E509541FFEE493A3F0
:1000830060010ECF54C025E060A840B8E493A3FA02
:10009300E493A3F8E493A3C8C582C8CAC583CAF08E
:1000A300A3C8C582C8CAC583CADFE9DEE780BEC06C
:1000B300E0C0D075D000C004C005C006C0073098AA
:1000C30026C298AF99BF3D217FE87E037D647C0003
:1000D300ED1D70011CED4C70F7EF1F70011EEF4E0C
:1000E30070EA75E7608002C299D007D006D005D0C8
:1000F30004D0D0D0E032C0E0C0F0C083C082C0D012
:1001030075D000C000C001C002C003C004C005C058
:1001130006C0077FE87E031201C720B202B2A0D057
:1001230007D006D005D004D003D002D001D000D030
:10013300D0D082D083D0F0D0E032BB010689828A4E
:1001430083E0225002E722BBFE02E32289828A83F4
:10015300E49322EF8DF0A4A8F0CF8CF0A428CE8DE9
:10016300F0A42EFE22E4FDFCC3ED9FEC9E5015E4AB
:10017300FAFB0BBB00010AEB647B4A70F50DBD0073
:10018300010C80E422071600001201010213052668
:10019300FFFFFFFFFF0521FFFFFFFFFF0075892022
:1001A300C29FD29ED29C758DFD758BFDD28ED2AF30
:1001B300D2AC221200061201D2B2A07F027E00123C
:1001C300016880F5EF1FAC0670011E4C70F622D259
:0601D30088D2A8D2AF2281
:00000001FF
