:090000000200260200F93232323E
:03000B00020006EA
:03001300020007E1
:03001B00020008D8
:100023000200B2787FE4F6D8FD75813102006D02DB
:100033000180E493A3F8E493A34003F68001F2085C
:10004300DFF48029E493A3F85407240CC8C333C412
:10005300540F4420C8834004F456800146F6DFE47D
:10006300800B0102040810204080900156E47E01B9
:100073009360BCA3FF543F30E509541FFEE493A3F0
:1000830060010ECF54C025E060A840B8E493A3FA02
:10009300E493A3F8E493A3C8C582C8CAC583CAF08E
:1000A300A3C8C582C8CAC583CADFE9DEE780BEC06C
:1000B300E0C0D075D000C004C005C006C0073098AA
:1000C30026C298AF99BF3D217FE87E037D647C0003
:1000D300ED1D70011CED4C70F7EF1F70011EEF4E0C
:1000E30070EA75E7608002C299D007D006D005D0C8
:1000F30004D0D0D0E032C0E0C0F0C083C082C0D012
:1001030075D000C000C001C002C003C004C005C058
:1001130006C0077FE87E0312016E20B202B2A0D0B0
:1001230007D006D005D004D003D002D001D000D030
:10013300D0D082D083D0F0D0E032BB010689828A4E
:1001430083E0225002E722BBFE02E32289828A83F4
:10015300E493220716000012010102130526FFFF94
:10016300FFFFFF0521FFFFFFFFFF00EF1FAC06703E
:10017300011E4C70F622D288D2A8D2AF2212017986
:04018300B2A080FCAA
:00000001FF
