:0F0000000200260201640202403232020009327D
:0300130002000ADE
:03001B0002000ED2
:1000230002011D787FE4F6D8FD75814102006D025F
:1000330000B2E493A3F8E493A34003F68001F2082B
:10004300DFF48029E493A3F85407240CC8C333C412
:10005300540F4420C8834004F456800146F6DFE47D
:10006300800B01020408102040809001EAE47E0125
:100073009360BCA3FF543F30E509541FFEE493A3F0
:1000830060010ECF54C025E060A840B8E493A3FA02
:10009300E493A3F8E493A3C8C582C8CAC583CAF08E
:1000A300A3C8C582C8CAC583CADFE9DEE780BE121A
:1000B30000067F4012025EE4F541E5419002819320
:1000C300FF12026A7F057E001202760541E541C3F5
:1000D300944040E67F8012025EE4F541E5419002E0
:1000E300C193FF12026A7F057E001202760541E585
:1000F30041C3940840E67FC012025EE4F541E54146
:10010300C3940C50ADE5419002C993FF12026A7F7C
:10011300057E00120276054180E4C0E0C0D075D0B0
:1001230000C004C005C006C007309826C298AF9926
:10013300BF3D217FE87E037D647C00ED1D70011CC3
:10014300ED4C70F7EF1F70011EEF4E70EA75E7601C
:100153008002C299D007D006D005D004D0D0D0E019
:1001630032C0E0C0F0C083C082C0D075D000C000F0
:10017300C001C002C003C004C005C006C0077FE8B9
:100183007E0312027620B202B2A0D007D006D005B9
:10019300D004D003D002D001D000D0D0D082D083FD
:1001A300D0F0D0E032C2A48B807F017E001201D157
:1001B300D2A57F057E001201D1C2A5EBC454F0F590
:1001C300807F017E001201D1D2A57F057E00D3EF8F
:1001D3009400EE9400400F7DC77C01DCFEDDFAEF56
:1001E3001F70EB1E80E822071900001201010213A1
:1001F3000534FFFFFFFFFF052FFFFFFFFFFF110880
:100203002050656368696E20536369656E6365207A
:100213000000BB010689828A83E0225002E722BBE9
:10022300FE02E32289828A83E49322EF8DF0A4A85D
:10023300F0CF8CF0A428CE8DF0A42EFE227F3212B4
:10024300025E7F2812025E7F0C12025E7F0612029C
:100253005E7F0112025E7F8002025EAB07C2A5C20F
:10026300A31201A8C2A522AB07C2A5D2A31201A85B
:10027300C2A522EF1FAC0670011E4C70F6220000CF
:10028300001F0000000000000E001F000000001F00
:10029300000E001F000002040F120F0A1F020F09B5
:1002A3000F090F0909111F11111F11111F00000060
:1002B300000A150A04000004150E1F0E11000001A8
:1002C30002030405060751513A35393838353232BD
:0302D300343700BD
:00000001FF
