:090000000200260200F93232323E
:03000B00020006EA
:03001300020007E1
:03001B00020008D8
:100023000200B2787FE4F6D8FD75813102006D02DB
:100033000200E493A3F8E493A34003F68001F208DB
:10004300DFF48029E493A3F85407240CC8C333C412
:10005300540F4420C8834004F456800146F6DFE47D
:10006300800B01020408102040809001E8E47E0127
:100073009360BCA3FF543F30E509541FFEE493A3F0
:1000830060010ECF54C025E060A840B8E493A3FA02
:10009300E493A3F8E493A3C8C582C8CAC583CAF08E
:1000A300A3C8C582C8CAC583CADFE9DEE780BEC06C
:1000B300E0C0D075D000C004C005C006C0073098AA
:1000C30026C298AF99BF3D217FE87E037D647C0003
:1000D300ED1D70011CED4C70F7EF1F70011EEF4E0C
:1000E30070EA75E7608002C299D007D006D005D0C8
:1000F30004D0D0D0E032C0E0C0F0C083C082C0D012
:1001030075D000C000C001C002C003C004C005C058
:1001130006C0077FE87E0312021A20B202B2A0D003
:1001230007D006D005D004D003D002D001D000D030
:10013300D0D082D083D0F0D0E032C2A48B807F01B4
:100143007E00120166D2A57F057E00120166C2A55C
:10015300EBC454F0F5807F017E00120166D2A57FC7
:10016300057E00D3EF9400EE9400400F7DC77C0121
:10017300DCFEDDFAEF1F70EB1E80E822BB0106896F
:10018300828A83E0225002E722BBFE02E3228982B5
:100193008A83E49322EF8DF0A4A8F0CF8CF0A428F7
:1001A300CE8DF0A42EFE22E4FDFCC3ED9FEC9E5009
:1001B30015E4FAFB0BBB00010AEB647B4A70F50DF7
:1001C300BD00010C80E4227F3212020E7F2812024E
:1001D3000E7F0C12020E7F0612020E7F0112020E18
:1001E3007F8002020E07160000120101021305268A
:1001F300FFFFFFFFFF0521FFFFFFFFFF0012022CA0
:10020300B2A07F027E001201AA80F5AB07C2A5C28D
:10021300A312013DC2A522EF1FAC0670011E4C7054
:0F022300F622D288D2A8D2AF221201CA02022537
:00000001FF
